:020000040800F2
:1000000068050020C10100082D2D0008752B00088F
:10001000292D0008A108000849310008000000004F
:10002000000000000000000000000000352D000866
:10003000B108000800000000312D0008392D00082B
:10004000DB010008DB010008DB010008DB01000820
:10005000DB010008DB010008DB010008DB01000810
:10006000DB010008DB010008DB010008DB01000800
:10007000DB010008DB010008DB010008DB010008F0
:10008000DB010008DB01000895080008DB0100081F
:10009000DB010008DB010008DB010008DB010008D0
:1000A000DB010008DB010008DB010008DB010008C0
:1000B000DB010008DB010008DB010008DB010008B0
:1000C000DB010008DB010008DB010008DB010008A0
:1000D000DB0100083D310008DB010008DB010008FE
:1000E000DB010008DB010008DB010008DB01000880
:1000F000DB010008DB010008DB010008DB01000870
:10010000DB010008DB010008DB010008DB0100085F
:10011000DB010008DB010008DB010008DB0100084F
:10012000A5080008DB010008DB010008DB0100086E
:10013000DB010008DB010008DB010008DB0100082F
:10014000DB010008DB010008DB010008DB0100081F
:10015000DB010008DB010008DB010008DB0100080F
:10016000DB010008DB010008DB010008DB010008FF
:10017000DB010008DB010008DB01000800000000D3
:10018000DB010008DB010008DB010008DB010008DF
:10019000DB010008DB010008DB010008DB010008CF
:1001A000DB010008DB010008DB010008DFF80CD0F0
:1001B00000F006FB004800476D310008680500208C
:1001C0000648804706480047FEE7FEE7FEE7FEE7F1
:1001D000FEE7FEE7FEE7FEE7FEE7FEE7E92D0008A3
:1001E000AD0100082DE9F05F0546002092469B46D0
:1001F00088460646814640241BE02846414647463D
:10020000224600F062F953465A46C01A914110D373
:1002100011461846224600F049F92D1A67EB0108ED
:100220004F4622460120002100F040F917EB00095B
:100230004E41201EA4F10104DFDC484631462A4627
:100240004346BDE8F09F2DE9FE4F81EA030404F028
:10025000004421F0004100944FF0000B23F00043D4
:1002600050EA01045ED052EA03045BD0C3F30A549F
:10027000C1F30A552C44A4F2F3340194A0FB0254B8
:10028000C1F3130141F48011C3F3130343F480134A
:1002900001FB024400FB034E840A970A44EA81549E
:1002A00047EA8357A4FB076802958D0A05FB07857B
:1002B0004FEA932C04FB0C542705029D4FEA065885
:1002C00047EA1637B5EB08056EEB070C870E920E62
:1002D00047EA811742EA8312A7FB0201B6EB0B0142
:1002E00064EB00042B0D43EA0C335E1844EB1C5006
:1002F000DA465146E7FB0201C5F313044FEA0B331C
:1003000043EA14534FEA0432019C43EA0603A4F182
:100310000C040294009CCDE900B400F02CF903B069
:10032000BDE8F08F00200146F9E72DE9F04D81EAA4
:10033000030404F0004B21F0004514464FF0000A7E
:1003400023F0004150EA050220D054EA01021DD0FA
:10035000C5F30A570246C5F31303C1F31300C1F3F3
:100360000A5640F4801543F48013A7EB0608101BCF
:10037000D64608F2FD3873EB050002D308F10108F8
:1003800001E092185B41B8F1000F03DA002001464A
:10039000BDE8F08D00204FF48011064684460EE043
:1003A000171B73EB050705D3121B63EB050306430D
:1003B0004CEA010C49084FEA300092185B4150EAC0
:1003C0000107EDD152EA030012D082EA040083EA69
:1003D0000501084305D0101BAB4106D201220023C2
:1003E00006E000224FF0004302E06FF001025310DC
:1003F0001AEB06004CEB085110EB0A0041EB0B0125
:10040000BDE8F04D00F0A8B80EB540F233410291BE
:100410000021CDE900110A460B4600F0ACF803B00C
:1004200000BD00F0004230F000400AD0C10D01F5DF
:100430006071C0F3160042EA0151C208400711433F
:10044000704700200146704701F0004330B421F0AE
:10045000004150EA010206D00A0DA2F56072C1F314
:100460001301002A02DC30BC00207047440F44EA2C
:10047000C104C100E01830BC00EBC25000F035B838
:1004800030B50B46014600202022012409E021FA64
:1004900002F59D4205D303FA02F5491B04FA02F561
:1004A0002844151EA2F10102F1DC30BD202A04DB34
:1004B000203A00FA02F1002070479140C2F1200377
:1004C00020FA03F3194390407047202A04DB203AB6
:1004D00021FA02F00021704721FA02F3D040C2F164
:1004E000200291400843194670470029A8BF704771
:1004F000401C490008BF20F00100704710B4B0FA5A
:1005000080FC00FA0CF050EA010404BF10BC7047F4
:1005100049B1CCF1200421FA04F411FA0CF118BF0E
:10052000012121430843A3EB0C01CB1D4FEA0061DD
:100530004FEA102042BF002010BC704700EBC350B0
:1005400010440029A4BF10BC7047401C490008BFDC
:1005500020F0010010BC704710B5141E73F10004A8
:1005600008DA401C41F1000192185B411A4301D1A5
:1005700020F0010010BD2DE9F04D92469B4611B1CF
:10058000B1FA81F202E0B0FA80F220329046FFF731
:100590008DFF04460F4640EA0A0041EA0B0153462C
:1005A0005A46084313D0114653EA010019D0C8F146
:1005B00040025046FFF789FF05460E465046594611
:1005C0004246FFF773FF084305D0012004E02046B0
:1005D0003946BDE8F08D0020054346EAE0762C431D
:1005E00037430A986305E40AA0EB08000022FD0ADD
:1005F00044EA47540A3002D500200146E9E70105E4
:1006000010196941DDE9084500196941BDE8F04D5F
:10061000A2E72DE9FE4F804681EA0300C00F0C4699
:10062000009021F0004123F00045B8EB0200A94101
:1006300005D24046214690461C460B46024623F012
:100640000040104347D0270DC7F30A00C3F30A51F7
:100650000290401A019040286BDAC3F3130040F473
:10066000801B0098924620B10023D2EB030A63EB73
:100670000B0B01985946C0F140025046FFF716FF98
:1006800006460D4650465946019A00F0ABF810EB6D
:1006900008006141002487EA115284EAE7731A4393
:1006A00040D0009A62B3019A012A4FEA075215DC42
:1006B000001B61EB02014FF0004202EA0752CDE954
:1006C0000042001C41F5801132462B46FFF753FFD4
:1006D00003B0BDE8F08F40462146F9E7001B61EB0F
:1006E0000201001C41F5801300185B412018A2F59F
:1006F000001747EB030140EAD570B6196D4111E0D0
:100700006D084FEA360645EAC0754FEA0752001BEE
:1007100061EB0201001C41F5801149084FEA3000ED
:100720000019514132462B4603B0BDE8F04FFFF7A8
:1007300013BF0098012240000023D0EB020263EBBC
:10074000E073009821464FEAE074B8EB000061EBDB
:100750000401E9E783F000435BE781F0004158E7DB
:10076000C1F30A52C1F3130140F2FF3341F4801187
:100770009A4202DA00200146704740F233439A421F
:10078000A2F2334202DC5242FFF79FBEFFF78EBE59
:1007900030B5041E71F1000404DB4FF00044404208
:1007A00064EB0101141E73F1000405DB1C464FF0DD
:1007B0000043524263EB0403994208BF904230BDAC
:1007C000064C074D06E0E06840F0010394E807009E
:1007D00098471034AC42F6D3FFF7ECFC183B000806
:1007E000383B0008202A06DBCB17203A41FA02F0FA
:1007F00043EAE07306E041FA02F3D040C2F120027E
:1008000091400843194670470146806B036C026CA7
:1008100013F0500F08D0D20648BF00F04BBA806BDF
:10082000C26C0846104700BF42F4007101640168C1
:100830008A6812F0405F01D000F0FEB8027E002A04
:10084000FAD1CA6A12F4700F02D08A685205F3D442
:100850004A6822F020024A60016C21F48071016430
:10086000016CC90448BF00F0E7B8016C41F0010118
:10087000016400F0E1B80000806B40210164416C2C
:1008800041F00401416400F015BA0000806B00F0F3
:100890000FBA000040F22800C2F2000000F00CBACB
:1008A000FEE7000040F27000C2F2000000F0DABC87
:1008B0007047000072B600BFFEE7000070470000FE
:1008C00070B581B00022009290F83C20012A03D13B
:1008D0000221084601B070BD0E6801220A2E80F880
:1008E0003C2009D3B2B25200D0F800E012FA86F2EE
:1008F0001E3A0EF10C0305E0D0F800E006EB4602CC
:100900000EF110034FF0070C1D680CFA02F4A5431A
:100910001D608D681C6805FA02F222431A6049685E
:1009200006290FD801EB81014A1F71461F2351F898
:10093000345F934025EA03030B60B3B203FA02F27B
:1009400014E000BF01EB81030C29B2B204D8714658
:1009500051F8304F233B03E0714651F82C4F413B97
:100960001F259D4024EA05059A400D600B6842F260
:10097000043CC4F2010C1A43ACF541739E450A6075
:1009800006D0002180F83C10084601B070BD00BFC1
:100990001221112EC1F2000118BF8E423AD1DCF8AB
:1009A00000208E4222F48002CCF80020DCF80020E7
:1009B00042F40002CCF80020E3D140F20C01C2F274
:1009C000000109684DF68362C4F21B32A1FB0212DA
:1009D000910C01EB81014900009100990029D0D0D0
:1009E00000990139009100990029CAD00099013974
:1009F000009100990029C4D0009901390091009913
:100A00000029BED000990139009100990029E7D151
:100A1000B7E700BF122EB4D1DCF8001021F40001BA
:100A2000CCF80010DCF8001041F48001CCF8001084
:100A3000A7E70000000000002DE9F047006842F23F
:100A40000001C4F20101884218BFBDE8F0878EA002
:100A500003F038F840F2100AC2F2000ABAF8044073
:100A60002046FFF7D1FC9FED840B59EC105B2A4622
:100A70004B46FFF7E8FB9FED820B56EC107B3A46A6
:100A80003346FFF752FCFFF7DFFCCAF80000FFF720
:100A9000C8FC43F60838C0F6000802460B4640463C
:100AA000214602F095FBBAF806402046FFF7ACFC61
:100AB0002A464B46FFF7C7FB3A463346FFF735FC5D
:100AC000FFF7C2FCCAF80000FFF7ABFC02460B467A
:100AD0004046214602F07CFBBAF808402046FFF76A
:100AE00093FC2A464B46FFF7AEFB3A463346FFF7E8
:100AF0001CFCFFF7A9FCCAF80000FFF792FC0246B5
:100B00000B464046214602F063FBBAF80A402046F5
:100B1000FFF77AFC2A464B46FFF795FB3A463346E9
:100B2000FFF703FCFFF790FCCAF80000FFF779FC21
:100B300002460B464046214602F04AFBBAF80C40FA
:100B40002046FFF761FC2A464B46FFF77CFB3A46FE
:100B50003346FFF7EAFBFFF777FCCAF80000FFF720
:100B600060FC02460B464046214602F031FBBAF8D3
:100B70000E402046FFF748FC2A464B46FFF763FB32
:100B80003A463346FFF7D1FBFFF75EFCCAF8000098
:100B9000FFF747FC02460B464046214602F018FB91
:100BA000BAF810402046FFF72FFC2A464B46FFF7C5
:100BB0004AFB3A463346FFF7B8FBFFF745FCCAF855
:100BC0000000FFF72EFC02460B464046214602F08D
:100BD000FFFABAF812402046FFF716FC2A464B46A9
:100BE000FFF731FB3A463346FFF79FFBFFF72CFC3C
:100BF000CAF80000FFF715FC02460B4640462146A6
:100C000002F0E6FABAF814402046FFF7FDFB2A4648
:100C10004B46FFF718FB3A463346FFF786FBFFF7D4
:100C200013FCCAF80000FFF7FCFB02460B464046E7
:100C3000214602F0CDFABAF816402046FFF7E4FB51
:100C40002A464B46FFF7FFFA3A463346FFF76DFB5D
:100C5000FFF7FAFBCAF80000FFF7E3FB02460B467A
:100C60004046214602F0B4FA10A0BDE8F04702F079
:100C700029BF00BF00BF00BF6666666666660A40A1
:100C80000000000000FEAF40444D4120E98787E6A8
:100C9000A0B7E5AE8CE68890EFBC8CE695B0E68D0B
:100CA000AEE5A682E4B88BEFBC9A0D000D00000003
:100CB000704700007047000070B504460068066881
:100CC0004568B10717D515F0200114D0216CC9066D
:100CD00003D4216C41F400712164816811F0405FFC
:100CE00002D1217E002969D02046FFF7A5FE2068A9
:100CF0006FF012010160710714D515F0800111D059
:100D0000216CC90603D4216C41F40051216481682F
:100D100011F4401F22D02046FFF7D0FD20686FF06D
:100D20000C010160F10706D015F040011CBF0168FD
:100D30005FEAC17134D1B1060FD515F0806108BFEB
:100D400070BD616C6FF0200541F0020161640560C7
:100D50002046FFF7AFFF2068056070BD816B11F47E
:100D6000401F02D081684905D5D441684905D2D4D5
:100D7000816811F0405FCED1217E0029CBD141683E
:100D800021F080014160206C20F480502064206CB0
:100D9000C005C0D4206C40F001002064BBE700BF58
:100DA000206C40F480302064204600F0D1F82068A8
:100DB0006FF001010160B106BFD4CEE7C16A11F442
:100DC000700F03D0816849053FF58EAF416821F06F
:100DD00020014160206C20F480702064206CC004ED
:100DE0003FF582AF206C40F0010020647CE70000FA
:100DF000002804BF0120704710B50446006C00288D
:100E00003ED0206CC00645D4206C41F202118843CC
:100E1000023042F204312064C4F20101086820F477
:100E2000403008600A6894E809101A43D4F810E0CA
:100E30000A604168012321F4807141604168C0F675
:100E4000007341EA0E214160416821F04071416028
:100E5000416841EA0C014160816821F400618160D0
:100E6000E168826811438160A16A8268994222F038
:100E700070628260826813D122F0405119E000BF95
:100E8000204600F067F80020606484F83C00206C85
:100E9000C006B9D50120002184F83C1010BD00BF68
:100EA00011438160816821F040518160E16A82686C
:100EB00011438160816821F0020181608168227E96
:100EC00094F8203041EA42018160416883B141F4E5
:100ED0000061416041684EF2000221F460414160CE
:100EE000616ACFF6FF72436802EB4131194301E0BA
:100EF00021F400614160C16A40F2000C21F47001EC
:100F0000C162E2696169CFF6F07CC36A0CEB025200
:100F10001A43C262826822F40072826094F8302020
:100F2000836843EA42228260826822F4806282609F
:100F3000826842EA8121816000206064216C012284
:100F400062F301012164002184F83C1010BD00000F
:100F50007047000070B586B0044642F20000216878
:100F6000C4F20100002681420596049602D006B024
:100F700070BD00BF43F630010096C4F202014A6919
:100F800000F5684042F480724A614A6902F4807256
:100F90000092009A00960A6842F004020A6009680A
:100FA00001F0040100910099082101910321CDE98C
:100FB000021601A900F038FB40F2700546F210401D
:100FC000C2F20005C4F202004FF48061C5E90006D8
:100FD00005F110004FF400624FF400534FF4807C91
:100FE00080E80E102846C5E90266C5E9086600F0EB
:100FF00019FA002818BFFFF75DFC1220002100221B
:10100000A563AC6300F068FC122000F051FC06B050
:1010100070BD0000B0B582B004460020019094F885
:101020003C00012802D1022002B0B0BD94460A461D
:101030000120216884F83C008868C00729D18868AD
:101040004DF6836540F00100886040F20C00C2F26A
:1010500000000068C4F21B35A0FB0505A80C00EBDE
:10106000400001900198A0B10198013801900198C9
:1010700078B1019801380190019850B10198013878
:101080000190019828B10198013801900198002839
:10109000EAD18868C00503D5886820F4807088602C
:1010A0008D68206CED0709D140F010002064606C61
:1010B00040F001006064002072E000BF40F2017562
:1010C000A84300F5807020644868400504D5206C72
:1010D000012565F30D302064256C0020ED044FF0F0
:1010E000000544BF656C25F00605656484F83C0086
:1010F000A06B40F6090540F68D03C0F60005C0F66A
:101100000003C0E90F5340F67903C0F60003C3643F
:101110006FF022030B604B6842F2080543F08063D6
:101120004B608B68C4F2010543F480738B604C31D3
:10113000634600F029FAD5F8FC222168D2060DD0CA
:10114000A5F1080291422BD1296811F0405F27D107
:10115000296841F08041296002B0B0BD42F200022E
:10116000C4F20102914217D042F20022C4F20102FD
:1011700091420DD042F20012C4F2010291420FD10D
:10118000D5F8FC22D20607D005F5FC72914207D1B2
:10119000D5F8FC22D20603D48A6812F0405F01D051
:1011A00002B0B0BD8A6842F080428A6002B0B0BD31
:1011B00070B5866D044600F00BFB94F835100229DB
:1011C00028D105462068216C026822F016020260D0
:1011D000426922F08002426109B9A16C19B101682B
:1011E00021F008010160016821F00101016000BFE8
:1011F00020680068C00715D000F0EAFA401B0628F6
:10120000F6D320206065032084F83500002184F89F
:10121000341070BD802060650120002184F83410F6
:1012200070BD00BFE06D3F2101FA00F0B060012009
:1012300084F835000020002184F8341070BD0000CF
:1012400090F83510022909D1052180F83510006881
:10125000016821F001010160002070478021416593
:1012600001207047F0B581B004460020009040F2A4
:101270000C00C2F200000268D4E9166048F2B5130F
:1012800037680821C1F64E3381403942A2FB03255D
:101290000CD0226813685B0708D5136823F0040399
:1012A0001360B160616D41F0010161650121814010
:1012B000394208D022685269120604D5B160616DC6
:1012C00041F00201616504218140394208D0226861
:1012D0001268920704D5B160616D41F00401616547
:1012E00010218140394217D020680268120713D5B7
:1012F000B16002680168520308D4C90508D40168C6
:1013000021F008010160216C21B905E008033FD4F8
:10131000216C09B120468847E16D202000FA01F2D6
:101320003A4241D020680368DB063DD5B26094F8AC
:1013300035300268052B1BD122F01602026042698B
:1013400022F080024261226C0AB9A26C1AB10268D2
:1013500022F0080202603F208840B060012084F83B
:101360003500216D0020002984F8340052D157E067
:101370000168520310D4C90512D4016821F010018C
:101380000160012084F83500002084F8340007E073
:10139000A16C0029BED1BFE7080301D4616C00E055
:1013A000E16B09B120468847606DC8B3606DC00726
:1013B0002ED0052084F835002068A90A026822F0A2
:1013C00001020260009A01328A4200921AD8026831
:1013D000D20717D0009A01328A42009212D80268CE
:1013E000D2070FD0009A01328A4200920AD80268CE
:1013F000D20707D0009A01328A42009202D80268CE
:10140000D207DFD1012084F83500002084F83400B1
:10141000E16C29B1204601B0BDE8F040084700BFAB
:1014200001B0F0BD2DE9F041044600F0D1F9ECB176
:101430000546022084F835000020216884F8340035
:10144000086820F00100086021680868C00711D012
:1014500000F0BEF9401B0528F6D903252023032000
:10146000636584F83550BDE8F08100BF0120BDE818
:10147000F08100BF086848F23F02CFF21002D4E9C1
:10148000013500EA020C04F10C0898E8C10143EAB6
:101490000C032B431843D4E9072E30433843104341
:1014A000626A40EA0E00042A40EA08031CD1206B5D
:1014B000D4E90A2E40EA0E00184308604869BEF1DC
:1014C000000F20F0030040EA020040F0040C11D0AD
:1014D000B8F5005F36D0B8F1000F45D1022A46D0EA
:1014E000012A3BD032B942E00B60486920F0070086
:1014F00040EA020C01F0F8004AF6AB221038CAF6B6
:10150000AA22A0FB02231A0943F60033C0F6000307
:101510009A5C40F2FF335F284FF03F00C1F814C0DF
:1015200021EA030100FA02F088BF0431C4E916126F
:101530008860002301250020636584F83550BDE8EC
:10154000F08100BF032AD5D8012540230120DFE820
:1015500002F0030E030500BF82E700BFAEF1C070CA
:10156000B0FA80F0400904E0032A04D3C2D1CEF3DC
:1015700000600028BED0012540230120636584F867
:101580003550BDE8F081000070B590F834C0BCF172
:10159000010F46D04FF0010C80F834C0D0F858E06D
:1015A00090F835C0BCF1010F38D14FF0020C80F833
:1015B00035C04FF0000CC0F854C0D0F800C08468AB
:1015C000056CC06DDCF80060402C26F48026CCF859
:1015D0000060CCF804300B4604BF13460A463F2196
:1015E00001FA00F0CCF80830CCF80C20CEF8080056
:1015F000DCF8000040F01600CCF800002DB1DCF85B
:10160000000040F00800CCF80000DCF8000040F0DA
:101610000100CCF80000002070BD00BF002180F860
:101620003410022070BD00002DE9F04F82B000F1AF
:101630003E4242F2004502F1FF77C4F202050A225F
:1016400043F6004E4FEAB726A84208BF0922C4F26B
:10165000010E092E38BF4FEAB722012500260027C8
:101660004FF00008009208E008F101080437B8F1D3
:10167000100F06F1020600F0A7800C6805FA08F9C1
:1016800014EA090FF0D0D1F804B003220BF0030CD8
:10169000ACF10104B240012C6FEA020A10D8826852
:1016A000CC6802EA0A02B440224382604268CBF36B
:1016B000001422EA090204FA08F42243426005E019
:1016C000BCF1030F02D14FF0030C20E0C2688C681C
:1016D00002EA0A02B4402243BCF1020FC26016D1F2
:1016E0006FF0030202EA58020244D2F820C007F069
:1016F0001C050F230C69AB402CEA030304FA05F523
:101700002B431362D1F804B001250BF0030C0268DF
:101710000CFA06F302EA0A021A431BF4403F026085
:10172000A2D0002243F644030192C4F202031A68D5
:101730004FF6084C42F480421A601A68CFF6FF7CDC
:1017400002F480420192019A28F00302724452F896
:101750000C3007F00C050F24AC40A343009C04FAA6
:1017600005F52B4342F80C30DEF808204B6842EABE
:10177000090543F60C4CDC0258BF22EA0905CEF8F5
:101780000850C4F2010CDCF800209C0242EA090572
:1017900058BF22EA0905CCF80050DEF804209C036B
:1017A00042EA090558BF22EA0905CEF80450DEF8DE
:1017B0000020DB0342EA090558BF22EA0905CEF8FA
:1017C0000050012550E700BF02B0BDE8F08F0000D7
:1017D00040F26010C2F200000068704740F204005E
:1017E00040F26011C2F20000C2F2000100780A6803
:1017F000104408607047000080B543F60040C4F212
:101800000200016841F400710160016841F48061E7
:101810000160016841F480710160032000F088F8E4
:101820000F2000F005F800F027F8002080BD000030
:1018300070B540F20406C2F2000640F20C013278A4
:10184000C2F200014FF47A730968B3FBF2F2044666
:10185000B1FBF2F1084600F043FB0F2C4FF00105FD
:1018600008D838B94FF0FF3021460022002500F09B
:1018700033F87460284670BD82B0002043F6400102
:101880000190C4F202014A6842F480424A604A6808
:1018900002F480420192019A0090086840F0805062
:1018A0000860086800F080500090009802B070470F
:1018B000002848BF7047C1B200F01F00012202FAA1
:1018C00000F04EF20012CEF2000242EAD10121F005
:1018D000030108607047000010B54EF60C5CCEF2B4
:1018E000000CDCF80030C3F3022E8EF00704042C49
:1018F00028BF0424BEF103034FF0FF3E0EFA04F4A8
:1019000038BF0023A14399400EFA03F39A431143D1
:1019100000F00F0200F160430901043A03F564434B
:101920006244002848BF02F10C03197010BD00008A
:101930004EF60C51CEF200010A684FF6FF031A4032
:1019400060F30A2242F0806040F0FD70086070474A
:101950002DE9F041002800F08B8043F60808C4F21E
:1019600002080446D8F8F8030D4600F00F0088423C
:1019700007D288F8F853D8F8F80300F00F00A8420F
:1019800076D12068810717D5410705D5D8F8001012
:1019900041F4E051C8F80010010705D5D8F800104F
:1019A00041F46041C8F80010D8F80010A26821F096
:1019B000F0011143C8F80010C0073FD1D8F8F80370
:1019C00000F00F00A84207D988F8F853D8F8F803B8
:1019D00000F00F00A8424BD12068410707D5D8F886
:1019E0000010E26821F4E0511143C8F8001000072C
:1019F00008D5D8F80000216920F4604040EAC10011
:101A0000C8F8000000F07CF8D8F8001043F6E8228F
:101A1000C1F30311C0F60002515C40F20C0220FA3F
:101A200001F140F20800C2F200000068C2F20002B8
:101A30001160FFF7FDFE0020BDE8F0816068811EA7
:101A4000022907D258F8081C89015CBF0120BDE8B3
:101A5000F08111E0012807D158F8081C89035CBF08
:101A60000120BDE8F08107E058F8081C890703D47D
:101A70000120BDE8F08100BFD8F8001021F003017B
:101A80000843C8F80000FFF7A3FE064641F2883776
:101A9000D8F80000616800F00C00B0EB810F8DD029
:101AA000FFF796FE801BB842F2D90320BDE8F08113
:101AB00040F20C0043F60801C2F20000C4F2020139
:101AC0000068096843F6F822C1F38221C0F60002DB
:101AD000515CC8407047000040F20C0043F608011A
:101AE000C2F20000C4F202010068096843F6F8225D
:101AF000C1F34231C0F60002515CC840704700009B
:101B000010B543F60404C4F20204606800F00C004F
:101B100008280BD0042819BF42F20040C0F2F4009C
:101B200047F64000C0F27D1010BD00BF206821685C
:101B30002368490247F64001C0F27D1100F03F02E0
:101B4000C3F388105CBF42F20041C0F2F401A1FB74
:101B500000010023FEF746FB21680222C1F3014188
:101B600002EB4101B0FBF1F010BD00002DE9F041A6
:101B700082B0002868D00446007843F60006C0070B
:101B8000C4F202060BD0B06800F00C00042840F04C
:101B90009F803068800302D56068002854D0207888
:101BA00080071AD5B06810F00C0F09D0B06800F0AB
:101BB0000C00082840F0A6807068400200F1A28066
:101BC0003068800702D5E06801283DD1306821697E
:101BD00020F0F80040EAC10030602078000737D4D8
:101BE000207840074CD4A56955B3B06800F00C00CC
:101BF000082840F0BB80012D26D07068E16900F410
:101C000080028A4220D1216A00F03F028A421BD121
:101C100047F6C071626A0140B1EB821F14D1A16A1C
:101C20004FF6FF73C903994300F44032A1F58031A8
:101C30008A4209D1E16A00F07060B0EB016F03D114
:101C4000002002B0BDE8F081012002B0BDE8F081C3
:101C50006069002840F20000C4F2472076D00121DC
:101C6000C0F8801EFFF7B4FD054600BF706F800707
:101C7000B6D4FFF7ADFD401B0228F7D9DDE000BF69
:101C8000306C10F080580AD100200190306C40F088
:101C900080503064306C00F080500190019847F221
:101CA0000007C4F200073868C00541D4386840F422
:101CB00080703860FFF78CFD054600BF3868C005AE
:101CC00036D4FFF785FD401B0228F7D9B5E000BFE9
:101CD000B06800F00C00082803D1706840023FF59E
:101CE00058AF6068B0F5803F07D0B0F5A02F40F046
:101CF0008D80306840F480203060306840F480305F
:101D000030608DE0E068002852D00020C4F2472007
:101D100001210160FFF75CFD054600BF30688007C8
:101D20003FF554AFFFF754FD401B0228F6D984E07D
:101D3000A068012805D005284ED1306F40F004007E
:101D40003067306F40F0010030674FE00021C0F88D
:101D5000801EFFF73DFD0546706F80077FF540AFA1
:101D6000FFF736FD401B0228F6D966E00027C4F2D3
:101D7000472700203866FFF72BFD022D05460BD1C3
:101D8000306880015ED5FFF723FD401B02284FF02D
:101D90000300F5D955E700BF306880017FF550AFEB
:101DA000FFF716FD401B02284FF00300F4D948E767
:101DB0000020C4F2472000210160FFF709FD05461D
:101DC000306880077FF509AFFFF702FD401B02284E
:101DD0004FF00300F4D934E7316F002821F00101FE
:101DE0003167316F21F0040131674DD0FFF7F0FC0E
:101DF000054641F2883700BF306F800756D4FFF7A1
:101E0000E7FC401BB842F7D917E000BF3168002853
:101E100021F480313160316821F4802131604FD06C
:101E2000FFF7D6FC054600BF306880033FF5B7AE2C
:101E3000FFF7CEFC401B6428F6D9032002B0BDE8B2
:101E4000F08100BF04F11C052FCD084340EA821049
:101E5000D9034FF6FF729143A1F5803140EA056046
:101E60000843706001203866FFF7B2FC044600BFEB
:101E7000306880013FF5E4AEFFF7AAFC001B0228A2
:101E80004FF00300F4D9DCE6FFF7A2FC054641F26F
:101E9000883700BF306F800708D5FFF799FC401BDB
:101EA000B8424FF00300F5D9CBE600BFB8F1000F00
:101EB0007FF499AE306C20F08050306493E600BF20
:101EC000FFF786FC054600BF306880037FF567AEEC
:101ED000FFF77EFC401B64284FF00300F4D9B0E606
:101EE000411E0020B0EB116F1CBF012070474EF265
:101EF0001002CEF2000251604EF62351CEF20001E4
:101F0000F0230B70072190601160704710B590F8B6
:101F10003C20012A4FF0020251D080F83D20026897
:101F2000D2F804E0D2F808C00C682EF07003234306
:101F300041F2FF74C4F20004A24253600EDC40F28E
:101F4000FF73C4F200039A4216DCB2F1804F2BD02B
:101F500040F20043C4F2000324E000BF40F2FF332C
:101F6000C4F201039A4213DC41F60003C4F20003F9
:101F70009A4219D0002313E040F60003C4F2000394
:101F80009A4211D040F60043C4F200030AE000BFB9
:101F900044F20003C4F201039A4205D040F2004328
:101FA000C4F201039A4204D149682CF0800319431A
:101FB00091600121002280F83D1080F83C201046FD
:101FC00010BD00002DE9F04390F83C30012B04BF18
:101FD0000220BDE8F0834FEAB202032A00F2FC803F
:101FE000DFE802F0023E7EBE036840F200471C6A52
:101FF0001A6A24F0020422F001021A621A46D3F887
:1020000004E052F818CF8E6843F48065C4F20107EB
:10201000BD4244EA060405D1CE6824F00C0426F043
:10202000040634430E68BD4207D1D1E905572EF4AA
:10203000407E45EA0E0545EA070E2CF0730737434C
:10204000C3F804E09F614F6809695F631C629F6980
:1020500047F008079F619F6927F004079F61B1E07F
:10206000036840F200481C6A1A6A24F0200422F037
:1020700010021A621A46D3F804C052F818EF8F689B
:1020800043F48065C4F20108454544EA071407D1CA
:10209000CF686FF0400624F0C00406EA0716344308
:1020A000D1F80090454506D1D1E905562CF440679A
:1020B0002E4347EA860C2EF4E64747EA0927C3F881
:1020C00004C09F614F6809699F631C629F6947F460
:1020D00000679F619F6927F480679F6171E000BF7F
:1020E000036840F200481C6A1A6A24F4007422F45F
:1020F00080721A621A46D3F804C052F81CEF8F6837
:1021000043F48065C4F20108454544EA072408D138
:10211000CF6840F2FF463F0224F4406427EA0606F7
:102120003443D1F80090454506D1D1E905562CF449
:1021300040572E4347EA061C2EF0730747EA09076B
:10214000C3F804C0DF614F680969DF631C62DF699F
:1021500047F00807DF61DF6927F00407DF6131E03E
:10216000036840F20045D3F820C01A6A43F4806740
:1021700022F480521A621A465C6852F81CEFD1F8B9
:1021800000808E68C4F20105AF4204D14D6924F489
:10219000804444EA85142CF4005747EA06372EF4AD
:1021A000E64646EA08265C60DE614E6809691E6400
:1021B0001F62DF6947F40067DF61DF6927F480672A
:1021C000DF6109021368194311600021002280F8C1
:1021D0003C200846BDE8F0830121002280F83C2025
:1021E0000846BDE8F0830000002804BF01207047C6
:1021F00010B5044690F83D0028B9002084F83C0052
:10220000204600F01FF8022084F83D002068211DC0
:1022100000F0F4FD012084F8460084F83E0084F8C4
:102220003F0084F8400084F8410084F8420084F8BC
:10223000430084F8440084F8450084F83D00002001
:1022400010BD000081B00068B0F1804F02D001B035
:10225000704700BF0020009043F64000C4F2020027
:10226000016841F001010160006800F00100009088
:10227000009801B07047000041B1082910D004292E
:1022800014BF00F1410200F13F020BE090F83E2044
:10229000012A1CBF01207047022280F83E2013E073
:1022A00000F140021278012A1CBF0120704702226F
:1022B000082907D0042914BF80F8412080F83F2066
:1022C00002E000BF80F84020006801F01F010122F9
:1022D000036A02FA01F123EA01020262026A11436F
:1022E00041F2FF72C4F20002904201620CDC40F243
:1022F000FF71C4F20001884214DCB0F1804F37D086
:1023000040F2004116E000BF40F2FF31C4F201018B
:10231000884215DC41F60001C4F20001884227D052
:10232000002115E040F60001C4F2000188421FD0F0
:1023300040F60041C4F20001884219D01FE000BFFE
:1023400044F20001C4F20101884211D040F2004180
:10235000C4F20101884212D1416C40F2004340F4C2
:102360008062C4F2010341F400419A42416406D103
:10237000816801F00701062904BF00207047016849
:1023800041F001010160002070470000704700002B
:1023900070470000B0B582B0044600680168C368A9
:1023A000426901F02F05202D03F0200506D12DB143
:1023B000204602B0BDE8B04000F0C8BD5FEA017C35
:1023C0001EBF02F0010E03F4907212EB0E0253D105
:1023D000226B012A05D111F0100218BF13F0100270
:1023E00036D10A0622D513F080021FD094F841108E
:1023F00021293FD1A168B1F5805F03D1216900296E
:1024000000F08282216A4A1C226209784160E18CD4
:1024100001390A04E1842DD1C16821F08001C16035
:10242000C16841F04001C16002B0B0BD490621D58C
:1024300013F040011ED0C16821F04001C16020218D
:10244000204684F8411002B0BDE8B04000F090BBD7
:102450000021019101680191416801910199406950
:10246000400613D4A08DE18DE28D002A18BF88426A
:1024700040F0CC8102B0B0BDCA0718BF13F480721F
:1024800040F0BE804A0700F1C180C6E0E06B016801
:102490004A68A38D91B2002900F0A881994280F08A
:1024A000A581E285C069B0F5807F00F09D8020683D
:1024B00050E8030F216820F4807041E80302DAB18C
:1024C000206850E8030F216820F4807041E803027F
:1024D00092B1206850E8030F216820F4807041E831
:1024E00003024AB1206850E8030F216820F480708D
:1024F00041E80302002ADAD1206850E8050F21687C
:1025000020F0010041E80502BAB3206850E8050F49
:10251000216820F0010041E8050272B3206850E80C
:10252000050F216820F0010041E805022AB3206868
:1025300050E8050F216820F0010041E80502002A5B
:10254000DAD11AE0206850E8050F216820F0400039
:1025500041E80502DAB1206850E8050F216820F053
:10256000400041E8050292B1206850E8050F21685B
:1025700020F0400041E805024AB1206850E8050F0C
:10258000216820F0400041E80502002ADAD120202D
:1025900084F8420000202063206850E8030F21687F
:1025A00020F0100041E80302DAB1206850E8030F80
:1025B000216820F0100041E8030292B1206850E841
:1025C000030F216820F0100041E803024AB120689F
:1025D00050E8030F216820F0100041E80302002AB0
:1025E000DAD1E06BFEF7E4FD02206063A08DE18D9F
:1025F000401A81B2204602B0BDE8B040FFF7C6BE27
:10260000626C42F0010262644A0706D5BEF1000F17
:1026100003D0626C42F0020262648A0706D5BEF102
:10262000000F03D0626C42F004026264BCF1000F40
:1026300009D545EA0E02B2FA82F2520903D1626C60
:1026400042F008026264626C002A3FF413AF11F09A
:10265000200118BF002D03D0204600F077FC206831
:102660004069616C00F0400001F00801401800F082
:10267000B58000BF206850E8030F216820F49070F7
:1026800041E80302BAB3206850E8030F216820F440
:10269000907041E8030272B3206850E8030F21688C
:1026A00020F4907041E803022AB3206850E8030F39
:1026B000216820F4907041E80302002ADAD11AE080
:1026C000206850E8050F216820F0010041E805026C
:1026D000DAB1206850E8050F216820F0010041E8D8
:1026E000050292B1206850E8050F216820F0010032
:1026F00041E805024AB1206850E8050F216820F042
:10270000010041E80502002ADAD1206B012824D11A
:10271000206850E8030F216820F0100041E8030210
:10272000DAB1206850E8030F216820F0100041E87A
:10273000030292B1206850E8030F216820F01000D6
:1027400041E803024AB1206850E8030F216820F0F5
:10275000100041E80302002ADAD1202084F8420068
:102760000020206320684069400649D5206850E871
:10277000050F216820F0400041E80502DAB1206829
:1027800050E8050F216820F0400041E8050292B1B1
:10279000206850E8050F216820F0400041E805025C
:1027A0004AB1206850E8050F216820F0400041E858
:1027B0000502002ADAD1E06B10B342F64171C0F68F
:1027C00000010165FEF73CFD00283FF453AEE06BCD
:1027D000016D02B0BDE8B040084700BF2046FFF7DA
:1027E000D7FD0020606402B0B0BD00BF8B427FF413
:1027F00041AEC069B0F5807F7FF43CAE02227CE040
:10280000204602B0BDE8B040FFF7C2BD401A2168C3
:1028100051E8031F226821F4907142E80313DBB1F1
:10282000216851E8031F226821F4907142E80313E4
:1028300093B1216851E8031F226821F4907142E8A6
:1028400003134BB1216851E8031F226821F49071F2
:1028500042E80313002BDAD1216851E8051F2268F2
:1028600021F0010142E80513DBB1216851E8051FA1
:10287000226821F0010142E8051393B1216851E873
:10288000051F226821F0010142E805134BB12168C0
:1028900051E8051F226821F0010142E80513002BD1
:1028A000DAD1202184F8421000212163216851E807
:1028B000031F226821F0100142E80313DBB12168F5
:1028C00051E8031F226821F0100142E8031393B17D
:1028D000216851E8031F226821F0100142E8031328
:1028E0004BB1216851E8031F226821F0100142E832
:1028F0000313002BDAD1022281B22046626302B0B8
:10290000BDE8B040FFF742BD216A31F8022B6FF3FA
:102910005F22426021627AE5002804BF01207047EF
:1029200010B5044690F8410028B9002084F8400012
:10293000204600F021F8242084F841002068C16876
:1029400021F40051C160204600F080FB206801693D
:1029500021F490410161416921F02A014161C1687E
:1029600041F40051C16000202021606484F84110CE
:1029700084F84210606310BD80B586B0016841F2F2
:102980000000C4F20100814202D006B080BD00BF49
:10299000002143F630020191C4F20202536900F5AE
:1029A000704043F010035361536903F01003019327
:1029B000019B0191136843F001031360126802F058
:1029C00001020192019A4FF4C06201920222CDE904
:1029D0000221032104910721059101A9FEF724FE9C
:1029E000252000210022FEF777FF2520FEF760FF5B
:1029F00006B080BD704700002DE9F041044690F814
:102A0000410020281CBF0220BDE8F0810D460029AE
:102A10004FF0010000F0AA801646002A08BFBDE86A
:102A2000F081002060642120984684F84100FEF780
:102A3000CFFEA684E684A1680646B1F5805F02D188
:102A40002069002862D02F460025E08C002861D044
:102A500018F1010018D0B8F1000F37D1216808E053
:102A600017F8010B4860E08C0138E084E08C002806
:102A700051D00868000673D5002FF1D135F8020B4C
:102A800000276FF35F20EDE7216802E00868000689
:102A900009D40868000606D4086800065CBF086808
:102AA0005FEA0060F2D51FB117F8010B05E000BF27
:102AB00035F8020B00276FF35F204860E08C013887
:102AC000E084E08C0028E4D125E000BF216800BF4D
:102AD0000868000608D4FEF77BFE801B404541D8FD
:102AE0002168C868F4E700BF17B117F8010B04E0CC
:102AF00035F8020B00276FF35F204860E08C013847
:102B0000E084E08C0028E3D105E000BF0027E08CE2
:102B100000289DD12168086840061FD4B8F1000F35
:102B20001ED018F101000FD10868400616D40868BD
:102B3000400613D40868400610D4086840064FF0D9
:102B40000000F1D50FE000BFFEF742FE801B4045BC
:102B500008D82068C16800684006F5D5002002E06A
:102B6000FEF736FE0320202184F84110BDE8F081F5
:102B700070470000FEE70000B0B584B040F22800C6
:102B8000C2F2000042F200014FF080534FF0407556
:102B90000024C4F20101C0E90A53012503944FF453
:102BA0008032047680F82040C56180F8305080E89B
:102BB0001600C0E903444561FEF71AF9002818BF62
:102BC000FDF778FE0D20CDE9000540F22800C2F2A5
:102BD000000069460294FDF773FE002818BFFDF758
:102BE00069FE04B0B0BD000080B582B00020019045
:102BF00043F63000C4F202000168002241F4800173
:102C000001600068002100F48000019001983820E4
:102C1000FEF762FE382002B0BDE88040FEF748BEF5
:102C200083B0002043F630010290C4F202010A682A
:102C300042F004020A600A6802F004020292029A58
:102C400001900A6842F080020A600A6802F080027D
:102C50000192019A0090086840F00100086008683D
:102C600000F001000090009803B0704780B58AB072
:102C700040F2D0000021C2F200004FF08042532306
:102C80004CF24F3CCDE90811CDE90611CDE9041114
:102C9000C0E90023C0E9021C01618161FFF7A4FAC9
:102CA000002818BFFDF706FE40F2D000C2F2000077
:102CB00008A9FFF72BF9002818BFFDF7FBFD6020DE
:102CC000019046F2A710029000200390059040F278
:102CD000D000C2F2000001A90422FFF773F9002816
:102CE00018BFFDF7E7FD0AB080BD000080B540F2D7
:102CF000181041F20001C2F20000C4F201010023E9
:102D00004FF00C0C4FF4E13280E80E00C0E90333C1
:102D1000C0E905C3C361FFF7FFFD002808BF80BD00
:102D2000BDE88040FDF7C6BDFEE70000FEE70000FD
:102D30007047000070470000FEF750BDB0B592B07C
:102D4000002443F64000CDE90A44CDE90844059447
:102D5000CDE90344CDE901440094C4F202000168C6
:102D6000022541F080510160006800F08050009021
:102D7000009847F200000094C4F20000016841F49A
:102D800040410160006800F440400090009801203C
:102D900006904FF4803007904FF480000D9019207A
:102DA0000E904FF4A870CDE90F050420119006A8ED
:102DB0000C95FEF7DBFE18B172B600BFFEE700BF50
:102DC0000F20CDE901054FF4A05004904FF480503E
:102DD000059001A805210394FEF7BAFD10B172B663
:102DE000FEE700BF12B0B0BD4EF68850CEF2000034
:102DF000016841F47001016070470000B0B540F611
:102E0000FF3E0568C4F2000E40F2004C7045C4F26B
:102E1000010C27DCB0F1804F31D040F20043C4F206
:102E2000000398422BD040F60003C4F200039842FE
:102E300025D041F6FF73C4F2000398422ADC7045A6
:102E40003CDCB0F1804F5FD040F20043C4F200039D
:102E5000984259D040F60003C4F20003984253D080
:102E600057E000BF40F60043C4F20003984206D08A
:102E7000604504D00023C4F201039842D9D14B68C5
:102E800025F0700243EA020541F6FF73C4F2000325
:102E90009842D4DD43F6FF73C4F20103984221DC6B
:102EA00042F20003C4F2000398422DD00023C4F282
:102EB0000103984228D0604526D02AE040F600431E
:102EC000C4F2000398421FD041F60003C4F200038D
:102ED000984219D041F60043C4F20003984213D03F
:102EE00017E000BF44F20003C4F2010398420BD084
:102EF00044F60003C4F20103984205D044F20043B3
:102F0000C4F20103984204D1CB6825F4407243EA2D
:102F100002050A688C684B69C46240F4806482626E
:102F2000644504BF09690163026825F0800142F02D
:102F3000040219430260012242610160B0BD000039
:102F4000806B0021C185FFF723BA000081B090F8A3
:102F50004210222921D183680246B3F5805F09D14E
:102F600052F8281F52F8183C002B63D003685B68A6
:102F70000AE000BF52F8281F13B90369002BF5D0EF
:102F800003685B6803F07F030B7011680131116007
:102F9000C18D01390A04C18502D001B0704700BF5C
:102FA0000168CA6822F02002CA60CA6822F48072EE
:102FB000CA604A6922F001024A61202180F8421069
:102FC00000214163026B012A3CD10163016851E891
:102FD000031F026821F0100142E80313DBB101680E
:102FE00051E8031F026821F0100142E8031393B176
:102FF000016851E8031F026821F0100142E8031341
:103000004BB1016851E8031F026821F0100142E84A
:103010000313002BDAD101680A68D20606D5002214
:1030200000920A680092496800910099818D01B070
:10303000FFF7ACB9026852686FF35F2221F8022BE8
:103040008162A5E701B0FFF7D5BC000010B50446CA
:103050000068D4E902C22369016921F44051114397
:103060000161626943EA0C01E3691143C2681943D3
:1030700049F20C639A431143C1604169A26921F48A
:10308000407141F20043114340F48062C4F20103F5
:103090009A42416102D1FEF71FFD01E0FEF708FDF3
:1030A000E16963681922B1F5004FA0FB020123D149
:1030B0005A00DB0FFDF796F848F21F51C5F2EB11ED
:1030C000A0FB01235A094FF69C73C0F6FF7303F16E
:1030D000805302FB0300322303EBC000A0FB01017D
:1030E0004FF4F87000EA111000EB0210C1F3421126
:1030F00008442168886010BD9A009B0FFDF772F8A4
:1031000048F21F51C5F2EB11A0FB01235A094FF6FB
:103110009C73C0F6FF7302FB0300322303EB001025
:10312000A0FB0101F02000EA511000EB0210C1F3F6
:10313000431108442168886010BD000040F2181057
:10314000C2F20000FFF726B9FEE7000080B582B0AA
:10315000019040F21810C2F2000001A9012264237C
:10316000FFF74AFC019802B080BD0000FEF744FB67
:10317000FFF7E4FDFFF754FDFFF736FDFFF7FCFC1A
:10318000FFF7B4FDFFF772FD0BA000F021F840F24D
:103190001000C2F20000011D40F22800C2F200003F
:1031A0000A22FDF737FF40F2D000C2F200000421EE
:1031B000FFF762F8FEE700BF5068617365204C6F4F
:1031C000636B656420416D706C69666965722E0081
:1031D0000FB4054B10B503A9044A029800F0DAF8C1
:1031E00010BC5DF814FB00004D3100080000002009
:1031F00002E008C8121F08C1002AFAD170477047C0
:10320000002001E001C1121F002AFBD1704700001D
:103210002DE9FF5F82B00021DDE90430020DDDF809
:1032200040B0034318D044F61050A2F2FF3242439C
:103230001514119801281FD0A5EB0B00401C5FEA64
:10324000000A4FF000064E4FDFF83891B046504666
:1032500015D5CAF1000413E0119801244AA30128EE
:1032600001D16FEA0B010298119AC0E90031C0E95F
:10327000024206B0BDE8F09FCBF10000DFE7044654
:103280000021404A491842EB0450CDE9001012E0F9
:10329000E00707D032463B4640464946FCF7D3FF9D
:1032A0008046894632463B4610461946FCF7CBFF1E
:1032B00006460F466410002CEAD1DDE90401DDE981
:1032C0000023BAF1000F06DAFCF7BDFF42464B4679
:1032D000FCF7B9FF05E0FDF728F842464B46FDF73D
:1032E00024F804460E460022284BFDF751FA03D875
:1032F0004FF0FF30014607E00022254B20463146C3
:10330000FDF787F9FDF72CFA102409E0002C0ADB01
:103310000A220023FCF766FF039B30321A55641E15
:1033200050EA0102F2D1641C039AC4F1110314445F
:10333000119A012A03D0012208430DD10AE0084363
:1033400004D000204FF0110B119072E7A3EB0B0596
:103350006D1E0DE05B4504DD4FF0000205F1010537
:1033600004E003DA4FF00002A5F10105002AECD0D9
:1033700002981199C0E90231C0E9004579E70000DF
:10338000000014400000F03F300000000000F04357
:103390000000E03F2DE9FF4F95B09B468946064669
:1033A00000250FE2252877D100242746F84A01217D
:1033B000059400E0044316F8013F203B01FA03F0B6
:1033C0001042F7D130782A2811D06FF02F033078CF
:1033D000A0F13002092A16D8059A44F0020402EB43
:1033E000820203EB42021044761C0590EFE759F885
:1033F000042B0592002A03DA504244F4005405904D
:1034000044F00204761C30782E2816D116F8010FED
:1034100044F004042A280DD06FF02F023078A0F178
:103420003003092B09D807EB870302EB4303C718C6
:10343000761CF3E759F8047B761C30786C280FD0A3
:1034400006DC4C2817D068280DD06A2814D104E077
:10345000742810D07A280FD10DE044F400140AE04B
:1034600044F4801401E044F440147278824202D1A2
:1034700004F58014761C761C307866280BD013DC9B
:10348000582877D009DC002875D04528F6D0462882
:10349000F4D047281AD19DE118E0632835D064287C
:1034A00079D0652812D195E1702873D008DC67289F
:1034B000F1D069286FD06E280DD06F2806D1B5E005
:1034C00073282CD0752875D0782874D05A4617994F
:1034D00090476D1C75E1C4F30250022809D00328FF
:1034E0000DD0D9F8001004280DD00D6009F10409A1
:1034F00067E1D9F80010EA17C1E90052F6E7D9F8F8
:1035000000100D80F2E70D70F0E719F8041B8DF83C
:10351000001000208DF80100EA46012003E059F870
:1035200004AB4FF0FF3061074FF0000102D40DE013
:1035300008F101018846B9420FDA8045F8DB1AF834
:1035400008100029F4D108E008F101018846814201
:10355000FADB1AF808100029F6D105985B46A0EBB3
:10356000080721463846179A00F094FA284400EBE1
:10357000080507E04DE029E10DE01AF8010B5A4675
:1035800017999047B8F10108F7D25B4621463846B3
:10359000179A13E142E00A220092C4F302524FF05C
:1035A000000A022A08D059F804CB032A4FEAEC712A
:1035B0000AD00DE029E02AE009F1070121F0070215
:1035C000F2E802C1914609E00FFA8CFC4FEAEC7177
:1035D000042A03D14FFA8CFC4FEAEC71002907DA78
:1035E0000A460021DCF1000C61EB02012D2202E011
:1035F000220504D52B228DF80420012203E0E207E6
:1036000001D02022F7E7904659E00A2102E010227B
:103610000DE010214FF0000A00910BE010224FF056
:10362000000A44F004040827009203E008224FF047
:10363000000A0092C4F30252022A05D059F804CBC2
:103640000021032A08D009E009F1070121F007024F
:10365000F2E802C1914605E01FFA8CFC042A01D170
:103660000CF0FF0C4FF00008220728D5702806D078
:10367000009B83F0100353EA0A0305D00EE04022BA
:103680008DF80420012208E05CEA010206D0302215
:103690008DF804208DF8050002229046009B83F0EF
:1036A000080353EA0A030AD15CEA010201D1620766
:1036B00005D530228DF804204FF001087F1E5828D0
:1036C00004D034A003900EA802900DE036A0F9E7D4
:1036D00053466046009AFCF785FD84460398825C59
:1036E0000298401E029002705CEA0100F0D102983C
:1036F00006A9081A00F1200A600702D524F48034D4
:1037000000E00127574502DDA7EB0A0000E000209A
:1037100000EB0A01009005984144401A0590E0032F
:1037200006D45B462146179A059800F0B3F9054484
:10373000002706E001A85A46C05D179990476D1C06
:103740007F1C4745F6DBE0030CD55B462146179A04
:10375000059800F09FF9054404E030205A46179977
:1037600090476D1C0099481E00900029F5DC08E088
:10377000029802995A460078491C0291179990477D
:103780006D1CBAF10001AAF1010AF1DC65E100004B
:103790000928010030313233343536373839616227
:1037A00063646566000000003031323334353637EB
:1037B00038394142434445460000000000F058F9C2
:1037C0000544761C307800287FF4ECAD19B028460B
:1037D000BDE8F08F620700D4062709F1070222F046
:1037E000070CFCE80223E14603F000485FEA080CFE
:1037F00002D00FF2702C0DE05FEA045C02D50FF2EC
:10380000682C07E05FEAC47C02D00FF2602C01E074
:10381000AFF2700C4FF0FF3823F00043CDF850C0EA
:1038200065280CD006DC452809D046281DD047283D
:103830003DD13DE0662818D067287ED138E00021D0
:10384000112F01DB112000E0781CCDE9000106A951
:103850000EA8FFF7DDFCDDE90F010E9A03910021B0
:10386000009207F1010A04914DE04FF000400097EB
:10387000CDE9011006A90EA8FFF7CAFCDDE90F0289
:1038800003920E9B11990022DDF80CA00093049284
:1038900011B9791C00EB010AB7EB0A0004D4C0F19E
:1038A000FF3007F1010A0490AAEB0700019044E001
:1038B000012F00DA01270021112F01DD112000E086
:1038C0003846CDE9000106A90EA8FFF7A1FCDDE905
:1038D0000F010E9A0391002104910092BA4621072C
:1038E0000CD40399514500DA8A46BAF1010F05DD7F
:1038F000009AAAF10101515C302908D0B84202DADD
:1039000010F1040F06DA0121CDE9011015E0AAF14A
:103910000101E9E7002805DC049901440491AAEBC0
:10392000000102E0411C514500DD8A460499401A1D
:10393000401C01904FF000400290200704D40198F1
:10394000504501DBCDF8048000208DF84F0002982F
:103950000DF14F07B0F1004F25D02B200E900298AB
:103960004FF0020800280CDA404202902D200E9001
:1039700007E00A210298FCF783FD3031029007F836
:10398000011DB8F10001A8F10108F2DC029800283D
:10399000EFD1791E0E980870307800F0200040F0CA
:1039A000450007F8020D12A8C01B00F10708149883
:1039B000007800B1012000EB0A01019801EBE071F1
:1039C00005984144401A401E0590E00306D45B462A
:1039D0002146179A059800F05DF805441498007880
:1039E00018B15A46179990476D1CE00324D55B46E1
:1039F0002146179A059800F04DF805441CE00498FC
:103A0000002807DBDDE90301884203DD0098405C04
:103A1000179901E0179930205A469047049805F10C
:103A20000105401C04900198401E019004D12E20F5
:103A30005A46179990476D1CBAF10001AAF1010A84
:103A4000DDDC05E017F8010B5A46179990476D1C0D
:103A5000B8F10001A8F10108F4DC5B462146179A91
:103A60000598ABE62D0000002B00000020000000B0
:103A70002DE9F041044600251E461746880404D46B
:103A800005E039462020B0476D1C641EF9D5284654
:103A9000BDE8F0812DE9F041044600251E46904620
:103AA000C80301D5302700E02027880404D505E0AD
:103AB00041463846B0476D1C641EF9D52846BDE81E
:103AC000F081000010B5044601E0FFF73FFB14F859
:103AD000010B04490028F8D1BDE810400A20FFF787
:103AE00035BB0000000000200000000000000000C6
:103AF0000102030406070809000000000102030494
:103B000000061016000610164144432020256420AC
:103B10002025660D0A000000383B00080000002048
:103B200010000000F0310008483B000810000020A1
:103B300058050000003200080000000001000000ED
:083B4000100000000024F40055
:04000005080001AD41
:00000001FF
